{
  "_format": "hh-sol-artifact-1",
  "contractName": "ReadWrite",
  "sourceName": "contracts/ReadWrite.sol",
  "abi": [
    {
      "inputs": [
        {
          "internalType": "string",
          "name": "_message",
          "type": "string"
        }
      ],
      "stateMutability": "nonpayable",
      "type": "constructor"
    },
    {
      "anonymous": false,
      "inputs": [
        {
          "indexed": false,
          "internalType": "string",
          "name": "oldStr",
          "type": "string"
        },
        {
          "indexed": false,
          "internalType": "string",
          "name": "newStr",
          "type": "string"
        }
      ],
      "name": "UpdatedMessages",
      "type": "event"
    },
    {
      "inputs": [],
      "name": "getMessage",
      "outputs": [
        {
          "internalType": "string",
          "name": "",
          "type": "string"
        }
      ],
      "stateMutability": "view",
      "type": "function"
    },
    {
      "inputs": [
        {
          "internalType": "string",
          "name": "_newMessage",
          "type": "string"
        }
      ],
      "name": "setMessage",
      "outputs": [],
      "stateMutability": "nonpayable",
      "type": "function"
    }
  ],
  "bytecode": "0x60806040523480156200001157600080fd5b50604051620009a7380380620009a78339818101604052810190620000379190620002a4565b80600090805190602001906200004f92919062000057565b50506200035a565b828054620000659062000324565b90600052602060002090601f016020900481019282620000895760008555620000d5565b82601f10620000a457805160ff1916838001178555620000d5565b82800160010185558215620000d5579182015b82811115620000d4578251825591602001919060010190620000b7565b5b509050620000e49190620000e8565b5090565b5b8082111562000103576000816000905550600101620000e9565b5090565b6000604051905090565b600080fd5b600080fd5b600080fd5b600080fd5b6000601f19601f8301169050919050565b7f4e487b7100000000000000000000000000000000000000000000000000000000600052604160045260246000fd5b620001708262000125565b810181811067ffffffffffffffff8211171562000192576200019162000136565b5b80604052505050565b6000620001a762000107565b9050620001b5828262000165565b919050565b600067ffffffffffffffff821115620001d857620001d762000136565b5b620001e38262000125565b9050602081019050919050565b60005b8381101562000210578082015181840152602081019050620001f3565b8381111562000220576000848401525b50505050565b60006200023d6200023784620001ba565b6200019b565b9050828152602081018484840111156200025c576200025b62000120565b5b62000269848285620001f0565b509392505050565b600082601f8301126200028957620002886200011b565b5b81516200029b84826020860162000226565b91505092915050565b600060208284031215620002bd57620002bc62000111565b5b600082015167ffffffffffffffff811115620002de57620002dd62000116565b5b620002ec8482850162000271565b91505092915050565b7f4e487b7100000000000000000000000000000000000000000000000000000000600052602260045260246000fd5b600060028204905060018216806200033d57607f821691505b60208210811415620003545762000353620002f5565b5b50919050565b61063d806200036a6000396000f3fe608060405234801561001057600080fd5b50600436106100365760003560e01c8063368b87721461003b578063ce6d41de14610057575b600080fd5b610055600480360381019061005091906103e7565b610075565b005b61005f610158565b60405161006c91906104b8565b60405180910390f35b600080805461008390610509565b80601f01602080910402602001604051908101604052809291908181526020018280546100af90610509565b80156100fc5780601f106100d1576101008083540402835291602001916100fc565b820191906000526020600020905b8154815290600101906020018083116100df57829003601f168201915b5050505050905081600090805190602001906101199291906101ea565b507ff91d506d7335e83e4869a58cd98e0557cdcef6f507ba1e52725521305626d05b81600060405161014c9291906105d0565b60405180910390a15050565b60606000805461016790610509565b80601f016020809104026020016040519081016040528092919081815260200182805461019390610509565b80156101e05780601f106101b5576101008083540402835291602001916101e0565b820191906000526020600020905b8154815290600101906020018083116101c357829003601f168201915b5050505050905090565b8280546101f690610509565b90600052602060002090601f016020900481019282610218576000855561025f565b82601f1061023157805160ff191683800117855561025f565b8280016001018555821561025f579182015b8281111561025e578251825591602001919060010190610243565b5b50905061026c9190610270565b5090565b5b80821115610289576000816000905550600101610271565b5090565b6000604051905090565b600080fd5b600080fd5b600080fd5b600080fd5b6000601f19601f8301169050919050565b7f4e487b7100000000000000000000000000000000000000000000000000000000600052604160045260246000fd5b6102f4826102ab565b810181811067ffffffffffffffff82111715610313576103126102bc565b5b80604052505050565b600061032661028d565b905061033282826102eb565b919050565b600067ffffffffffffffff821115610352576103516102bc565b5b61035b826102ab565b9050602081019050919050565b82818337600083830152505050565b600061038a61038584610337565b61031c565b9050828152602081018484840111156103a6576103a56102a6565b5b6103b1848285610368565b509392505050565b600082601f8301126103ce576103cd6102a1565b5b81356103de848260208601610377565b91505092915050565b6000602082840312156103fd576103fc610297565b5b600082013567ffffffffffffffff81111561041b5761041a61029c565b5b610427848285016103b9565b91505092915050565b600081519050919050565b600082825260208201905092915050565b60005b8381101561046a57808201518184015260208101905061044f565b83811115610479576000848401525b50505050565b600061048a82610430565b610494818561043b565b93506104a481856020860161044c565b6104ad816102ab565b840191505092915050565b600060208201905081810360008301526104d2818461047f565b905092915050565b7f4e487b7100000000000000000000000000000000000000000000000000000000600052602260045260246000fd5b6000600282049050600182168061052157607f821691505b60208210811415610535576105346104da565b5b50919050565b60008190508160005260206000209050919050565b6000815461055d81610509565b610567818661043b565b945060018216600081146105825760018114610594576105c7565b60ff19831686526020860193506105c7565b61059d8561053b565b60005b838110156105bf578154818901526001820191506020810190506105a0565b808801955050505b50505092915050565b600060408201905081810360008301526105ea818561047f565b905081810360208301526105fe8184610550565b9050939250505056fea2646970667358221220916214a16156fa0d791df35a84f7647a43745491bd9d35a31947783c0e3c5bf564736f6c634300080c0033",
  "linkReferences": {},
  "deployedLinkReferences": {}
}